{
  "contractName": "FoodLoop",
  "abi": [
    {
      "inputs": [
        {
          "internalType": "address",
          "name": "_nftContractAddress",
          "type": "address"
        }
      ],
      "stateMutability": "nonpayable",
      "type": "constructor"
    },
    {
      "inputs": [
        {
          "internalType": "uint256",
          "name": "",
          "type": "uint256"
        }
      ],
      "name": "deliveryRecords",
      "outputs": [
        {
          "internalType": "bool",
          "name": "",
          "type": "bool"
        }
      ],
      "stateMutability": "view",
      "type": "function"
    },
    {
      "inputs": [],
      "name": "nftContractAddress",
      "outputs": [
        {
          "internalType": "address",
          "name": "",
          "type": "address"
        }
      ],
      "stateMutability": "view",
      "type": "function"
    },
    {
      "inputs": [
        {
          "internalType": "uint256",
          "name": "deliveryId",
          "type": "uint256"
        },
        {
          "internalType": "address",
          "name": "donor",
          "type": "address"
        },
        {
          "internalType": "string",
          "name": "foodType",
          "type": "string"
        },
        {
          "internalType": "string",
          "name": "weight",
          "type": "string"
        },
        {
          "internalType": "string",
          "name": "location",
          "type": "string"
        },
        {
          "internalType": "string",
          "name": "timestamp",
          "type": "string"
        }
      ],
      "name": "confirmDeliveryAndMintNFT",
      "outputs": [],
      "stateMutability": "nonpayable",
      "type": "function"
    }
  ],
  "bytecode": "0x608060405234801561000f575f80fd5b50604051610735380380610735833981810160405281019061003191906100d5565b8060015f6101000a81548173ffffffffffffffffffffffffffffffffffffffff021916908373ffffffffffffffffffffffffffffffffffffffff16021790555050610100565b5f80fd5b5f73ffffffffffffffffffffffffffffffffffffffff82169050919050565b5f6100a48261007b565b9050919050565b6100b48161009a565b81146100be575f80fd5b50565b5f815190506100cf816100ab565b92915050565b5f602082840312156100ea576100e9610077565b5b5f6100f7848285016100c1565b91505092915050565b6106288061010d5f395ff3fe608060405234801561000f575f80fd5b506004361061003f575f3560e01c806337a03d1214610043578063692d6c371461005f578063aae282e11461008f575b5f80fd5b61005d6004803603810190610058919061038c565b6100ad565b005b61007960048036038101906100749190610485565b610171565b60405161008691906104ca565b60405180910390f35b61009761018d565b6040516100a491906104f2565b60405180910390f35b60015f808881526020019081526020015f205f6101000a81548160ff0219169083151502179055505f60015f9054906101000a900473ffffffffffffffffffffffffffffffffffffffff1690508073ffffffffffffffffffffffffffffffffffffffff1663e089899687878787876040518663ffffffff1660e01b815260040161013b959493929190610585565b5f604051808303815f87803b158015610152575f80fd5b505af1158015610164573d5f803e3d5ffd5b5050505050505050505050565b5f602052805f5260405f205f915054906101000a900460ff1681565b60015f9054906101000a900473ffffffffffffffffffffffffffffffffffffffff1681565b5f604051905090565b5f80fd5b5f80fd5b5f819050919050565b6101d5816101c3565b81146101df575f80fd5b50565b5f813590506101f0816101cc565b92915050565b5f73ffffffffffffffffffffffffffffffffffffffff82169050919050565b5f61021f826101f6565b9050919050565b61022f81610215565b8114610239575f80fd5b50565b5f8135905061024a81610226565b92915050565b5f80fd5b5f80fd5b5f601f19601f8301169050919050565b7f4e487b71000000000000000000000000000000000000000000000000000000005f52604160045260245ffd5b61029e82610258565b810181811067ffffffffffffffff821117156102bd576102bc610268565b5b80604052505050565b5f6102cf6101b2565b90506102db8282610295565b919050565b5f67ffffffffffffffff8211156102fa576102f9610268565b5b61030382610258565b9050602081019050919050565b828183375f83830152505050565b5f61033061032b846102e0565b6102c6565b90508281526020810184848401111561034c5761034b610254565b5b610357848285610310565b509392505050565b5f82601f83011261037357610372610250565b5b813561038384826020860161031e565b91505092915050565b5f805f805f8060c087890312156103a6576103a56101bb565b5b5f6103b389828a016101e2565b96505060206103c489828a0161023c565b955050604087013567ffffffffffffffff8111156103e5576103e46101bf565b5b6103f189828a0161035f565b945050606087013567ffffffffffffffff811115610412576104116101bf565b5b61041e89828a0161035f565b935050608087013567ffffffffffffffff81111561043f5761043e6101bf565b5b61044b89828a0161035f565b92505060a087013567ffffffffffffffff81111561046c5761046b6101bf565b5b61047889828a0161035f565b9150509295509295509295565b5f6020828403121561049a576104996101bb565b5b5f6104a7848285016101e2565b91505092915050565b5f8115159050919050565b6104c4816104b0565b82525050565b5f6020820190506104dd5f8301846104bb565b92915050565b6104ec81610215565b82525050565b5f6020820190506105055f8301846104e3565b92915050565b5f81519050919050565b5f82825260208201905092915050565b5f5b83811015610542578082015181840152602081019050610527565b5f8484015250505050565b5f6105578261050b565b6105618185610515565b9350610571818560208601610525565b61057a81610258565b840191505092915050565b5f60a0820190506105985f8301886104e3565b81810360208301526105aa818761054d565b905081810360408301526105be818661054d565b905081810360608301526105d2818561054d565b905081810360808301526105e6818461054d565b9050969550505050505056fea26469706673582212205820e79107b48b2d297f3b72d99eeef740522f37c5b5c65b7e092777519db1f064736f6c63430008150033",
  "immutableReferences": {},
  "source": "// SPDX-License-Identifier: MIT\r\npragma solidity ^0.8.0;\r\n\r\nimport \"./FoodLoopNFT.sol\";\r\n\r\ncontract FoodLoop {\r\n    mapping(uint256 => bool) public deliveryRecords;\r\n    address public nftContractAddress;\r\n\r\n    constructor(address _nftContractAddress) {\r\n        nftContractAddress = _nftContractAddress;\r\n    }\r\n\r\n    function confirmDeliveryAndMintNFT(\r\n        uint256 deliveryId,\r\n        address donor,\r\n        string memory foodType,\r\n        string memory weight,\r\n        string memory location,\r\n        string memory timestamp\r\n    ) public {\r\n        deliveryRecords[deliveryId] = true;\r\n\r\n        FoodLoopNFT nftContract = FoodLoopNFT(nftContractAddress);\r\n        nftContract.mintCertificate(donor, foodType, weight, location, timestamp);\r\n    }\r\n}\r\n",
  "sourcePath": "D:\\SANKALP\\FoodLoop\\backend\\blockchain\\contracts\\FoodLoop.sol",
  "compiler": {
    "name": "solc",
    "version": "0.8.21+commit.d9974bed.Emscripten.clang"
  },
  "schemaVersion": "3.4.16",
  "updatedAt": "2025-04-16T13:24:43.087Z",
  "devdoc": {
    "kind": "dev",
    "methods": {},
    "version": 1
  },
  "userdoc": {
    "kind": "user",
    "methods": {},
    "version": 1
  }
}