{
  "contractName": "FoodLoopNFT",
  "abi": [
    {
      "inputs": [],
      "stateMutability": "nonpayable",
      "type": "constructor"
    },
    {
      "anonymous": false,
      "inputs": [
        {
          "indexed": true,
          "internalType": "address",
          "name": "owner",
          "type": "address"
        },
        {
          "indexed": true,
          "internalType": "address",
          "name": "approved",
          "type": "address"
        },
        {
          "indexed": true,
          "internalType": "uint256",
          "name": "tokenId",
          "type": "uint256"
        }
      ],
      "name": "Approval",
      "type": "event"
    },
    {
      "anonymous": false,
      "inputs": [
        {
          "indexed": true,
          "internalType": "address",
          "name": "owner",
          "type": "address"
        },
        {
          "indexed": true,
          "internalType": "address",
          "name": "operator",
          "type": "address"
        },
        {
          "indexed": false,
          "internalType": "bool",
          "name": "approved",
          "type": "bool"
        }
      ],
      "name": "ApprovalForAll",
      "type": "event"
    },
    {
      "anonymous": false,
      "inputs": [
        {
          "indexed": true,
          "internalType": "address",
          "name": "from",
          "type": "address"
        },
        {
          "indexed": true,
          "internalType": "address",
          "name": "to",
          "type": "address"
        },
        {
          "indexed": true,
          "internalType": "uint256",
          "name": "tokenId",
          "type": "uint256"
        }
      ],
      "name": "Transfer",
      "type": "event"
    },
    {
      "inputs": [
        {
          "internalType": "address",
          "name": "to",
          "type": "address"
        },
        {
          "internalType": "uint256",
          "name": "tokenId",
          "type": "uint256"
        }
      ],
      "name": "approve",
      "outputs": [],
      "stateMutability": "nonpayable",
      "type": "function"
    },
    {
      "inputs": [
        {
          "internalType": "address",
          "name": "owner",
          "type": "address"
        }
      ],
      "name": "balanceOf",
      "outputs": [
        {
          "internalType": "uint256",
          "name": "",
          "type": "uint256"
        }
      ],
      "stateMutability": "view",
      "type": "function"
    },
    {
      "inputs": [
        {
          "internalType": "uint256",
          "name": "",
          "type": "uint256"
        }
      ],
      "name": "certificateData",
      "outputs": [
        {
          "internalType": "string",
          "name": "",
          "type": "string"
        }
      ],
      "stateMutability": "view",
      "type": "function"
    },
    {
      "inputs": [
        {
          "internalType": "uint256",
          "name": "tokenId",
          "type": "uint256"
        }
      ],
      "name": "getApproved",
      "outputs": [
        {
          "internalType": "address",
          "name": "",
          "type": "address"
        }
      ],
      "stateMutability": "view",
      "type": "function"
    },
    {
      "inputs": [
        {
          "internalType": "address",
          "name": "owner",
          "type": "address"
        },
        {
          "internalType": "address",
          "name": "operator",
          "type": "address"
        }
      ],
      "name": "isApprovedForAll",
      "outputs": [
        {
          "internalType": "bool",
          "name": "",
          "type": "bool"
        }
      ],
      "stateMutability": "view",
      "type": "function"
    },
    {
      "inputs": [],
      "name": "name",
      "outputs": [
        {
          "internalType": "string",
          "name": "",
          "type": "string"
        }
      ],
      "stateMutability": "view",
      "type": "function"
    },
    {
      "inputs": [
        {
          "internalType": "uint256",
          "name": "tokenId",
          "type": "uint256"
        }
      ],
      "name": "ownerOf",
      "outputs": [
        {
          "internalType": "address",
          "name": "",
          "type": "address"
        }
      ],
      "stateMutability": "view",
      "type": "function"
    },
    {
      "inputs": [
        {
          "internalType": "address",
          "name": "from",
          "type": "address"
        },
        {
          "internalType": "address",
          "name": "to",
          "type": "address"
        },
        {
          "internalType": "uint256",
          "name": "tokenId",
          "type": "uint256"
        }
      ],
      "name": "safeTransferFrom",
      "outputs": [],
      "stateMutability": "nonpayable",
      "type": "function"
    },
    {
      "inputs": [
        {
          "internalType": "address",
          "name": "from",
          "type": "address"
        },
        {
          "internalType": "address",
          "name": "to",
          "type": "address"
        },
        {
          "internalType": "uint256",
          "name": "tokenId",
          "type": "uint256"
        },
        {
          "internalType": "bytes",
          "name": "data",
          "type": "bytes"
        }
      ],
      "name": "safeTransferFrom",
      "outputs": [],
      "stateMutability": "nonpayable",
      "type": "function"
    },
    {
      "inputs": [
        {
          "internalType": "address",
          "name": "operator",
          "type": "address"
        },
        {
          "internalType": "bool",
          "name": "approved",
          "type": "bool"
        }
      ],
      "name": "setApprovalForAll",
      "outputs": [],
      "stateMutability": "nonpayable",
      "type": "function"
    },
    {
      "inputs": [
        {
          "internalType": "bytes4",
          "name": "interfaceId",
          "type": "bytes4"
        }
      ],
      "name": "supportsInterface",
      "outputs": [
        {
          "internalType": "bool",
          "name": "",
          "type": "bool"
        }
      ],
      "stateMutability": "view",
      "type": "function"
    },
    {
      "inputs": [],
      "name": "symbol",
      "outputs": [
        {
          "internalType": "string",
          "name": "",
          "type": "string"
        }
      ],
      "stateMutability": "view",
      "type": "function"
    },
    {
      "inputs": [
        {
          "internalType": "uint256",
          "name": "tokenId",
          "type": "uint256"
        }
      ],
      "name": "tokenURI",
      "outputs": [
        {
          "internalType": "string",
          "name": "",
          "type": "string"
        }
      ],
      "stateMutability": "view",
      "type": "function"
    },
    {
      "inputs": [
        {
          "internalType": "address",
          "name": "from",
          "type": "address"
        },
        {
          "internalType": "address",
          "name": "to",
          "type": "address"
        },
        {
          "internalType": "uint256",
          "name": "tokenId",
          "type": "uint256"
        }
      ],
      "name": "transferFrom",
      "outputs": [],
      "stateMutability": "nonpayable",
      "type": "function"
    },
    {
      "inputs": [
        {
          "internalType": "address",
          "name": "donor",
          "type": "address"
        },
        {
          "internalType": "string",
          "name": "foodType",
          "type": "string"
        },
        {
          "internalType": "string",
          "name": "weight",
          "type": "string"
        },
        {
          "internalType": "string",
          "name": "location",
          "type": "string"
        },
        {
          "internalType": "string",
          "name": "timestamp",
          "type": "string"
        }
      ],
      "name": "mintCertificate",
      "outputs": [],
      "stateMutability": "nonpayable",
      "type": "function"
    }
  ],
  "bytecode": "0x608060405234801562000010575f80fd5b506040518060400160405280601381526020017f466f6f644c6f6f704365727469666963617465000000000000000000000000008152506040518060400160405280600581526020017f464c4e4654000000000000000000000000000000000000000000000000000000815250815f90816200008d91906200030c565b5080600190816200009f91906200030c565b505050620003f0565b5f81519050919050565b7f4e487b71000000000000000000000000000000000000000000000000000000005f52604160045260245ffd5b7f4e487b71000000000000000000000000000000000000000000000000000000005f52602260045260245ffd5b5f60028204905060018216806200012457607f821691505b6020821081036200013a5762000139620000df565b5b50919050565b5f819050815f5260205f209050919050565b5f6020601f8301049050919050565b5f82821b905092915050565b5f600883026200019e7fffffffffffffffffffffffffffffffffffffffffffffffffffffffffffffffff8262000161565b620001aa868362000161565b95508019841693508086168417925050509392505050565b5f819050919050565b5f819050919050565b5f620001f4620001ee620001e884620001c2565b620001cb565b620001c2565b9050919050565b5f819050919050565b6200020f83620001d4565b620002276200021e82620001fb565b8484546200016d565b825550505050565b5f90565b6200023d6200022f565b6200024a81848462000204565b505050565b5b818110156200027157620002655f8262000233565b60018101905062000250565b5050565b601f821115620002c0576200028a8162000140565b620002958462000152565b81016020851015620002a5578190505b620002bd620002b48562000152565b8301826200024f565b50505b505050565b5f82821c905092915050565b5f620002e25f1984600802620002c5565b1980831691505092915050565b5f620002fc8383620002d1565b9150826002028217905092915050565b6200031782620000a8565b67ffffffffffffffff811115620003335762000332620000b2565b5b6200033f82546200010c565b6200034c82828562000275565b5f60209050601f83116001811462000382575f84156200036d578287015190505b620003798582620002ef565b865550620003e8565b601f198416620003928662000140565b5f5b82811015620003bb5784890151825560018201915060208501945060208101905062000394565b86831015620003db5784890151620003d7601f891682620002d1565b8355505b6001600288020188555050505b505050505050565b612c3580620003fe5f395ff3fe608060405234801561000f575f80fd5b50600436106100f3575f3560e01c806370a0823111610095578063b88d4fde11610064578063b88d4fde14610293578063c87b56dd146102af578063e0898996146102df578063e985e9c5146102fb576100f3565b806370a08231146101f95780638024818a1461022957806395d89b4114610259578063a22cb46514610277576100f3565b8063095ea7b3116100d1578063095ea7b31461017557806323b872dd1461019157806342842e0e146101ad5780636352211e146101c9576100f3565b806301ffc9a7146100f757806306fdde0314610127578063081812fc14610145575b5f80fd5b610111600480360381019061010c919061194b565b61032b565b60405161011e9190611990565b60405180910390f35b61012f61040c565b60405161013c9190611a33565b60405180910390f35b61015f600480360381019061015a9190611a86565b61049b565b60405161016c9190611af0565b60405180910390f35b61018f600480360381019061018a9190611b33565b6104dd565b005b6101ab60048036038101906101a69190611b71565b6105f3565b005b6101c760048036038101906101c29190611b71565b610653565b005b6101e360048036038101906101de9190611a86565b610672565b6040516101f09190611af0565b60405180910390f35b610213600480360381019061020e9190611bc1565b6106f6565b6040516102209190611bfb565b60405180910390f35b610243600480360381019061023e9190611a86565b6107aa565b6040516102509190611a33565b60405180910390f35b610261610845565b60405161026e9190611a33565b60405180910390f35b610291600480360381019061028c9190611c3e565b6108d5565b005b6102ad60048036038101906102a89190611da8565b6108eb565b005b6102c960048036038101906102c49190611a86565b61094d565b6040516102d69190611a33565b60405180910390f35b6102f960048036038101906102f49190611ec6565b6109b2565b005b61031560048036038101906103109190611fad565b610a1f565b6040516103229190611990565b60405180910390f35b5f7f80ac58cd000000000000000000000000000000000000000000000000000000007bffffffffffffffffffffffffffffffffffffffffffffffffffffffff1916827bffffffffffffffffffffffffffffffffffffffffffffffffffffffff191614806103f557507f5b5e139f000000000000000000000000000000000000000000000000000000007bffffffffffffffffffffffffffffffffffffffffffffffffffffffff1916827bffffffffffffffffffffffffffffffffffffffffffffffffffffffff1916145b80610405575061040482610aad565b5b9050919050565b60605f805461041a90612018565b80601f016020809104026020016040519081016040528092919081815260200182805461044690612018565b80156104915780601f1061046857610100808354040283529160200191610491565b820191905f5260205f20905b81548152906001019060200180831161047457829003601f168201915b5050505050905090565b5f6104a582610b16565b60045f8381526020019081526020015f205f9054906101000a900473ffffffffffffffffffffffffffffffffffffffff169050919050565b5f6104e782610672565b90508073ffffffffffffffffffffffffffffffffffffffff168373ffffffffffffffffffffffffffffffffffffffff1603610557576040517f08c379a000000000000000000000000000000000000000000000000000000000815260040161054e906120b8565b60405180910390fd5b8073ffffffffffffffffffffffffffffffffffffffff16610576610b61565b73ffffffffffffffffffffffffffffffffffffffff1614806105a557506105a48161059f610b61565b610a1f565b5b6105e4576040517f08c379a00000000000000000000000000000000000000000000000000000000081526004016105db90612146565b60405180910390fd5b6105ee8383610b68565b505050565b6106046105fe610b61565b82610c1e565b610643576040517f08c379a000000000000000000000000000000000000000000000000000000000815260040161063a906121d4565b60405180910390fd5b61064e838383610cb2565b505050565b61066d83838360405180602001604052805f8152506108eb565b505050565b5f8061067d83610f9e565b90505f73ffffffffffffffffffffffffffffffffffffffff168173ffffffffffffffffffffffffffffffffffffffff16036106ed576040517f08c379a00000000000000000000000000000000000000000000000000000000081526004016106e49061223c565b60405180910390fd5b80915050919050565b5f8073ffffffffffffffffffffffffffffffffffffffff168273ffffffffffffffffffffffffffffffffffffffff1603610765576040517f08c379a000000000000000000000000000000000000000000000000000000000815260040161075c906122ca565b60405180910390fd5b60035f8373ffffffffffffffffffffffffffffffffffffffff1673ffffffffffffffffffffffffffffffffffffffff1681526020019081526020015f20549050919050565b6007602052805f5260405f205f9150905080546107c690612018565b80601f01602080910402602001604051908101604052809291908181526020018280546107f290612018565b801561083d5780601f106108145761010080835404028352916020019161083d565b820191905f5260205f20905b81548152906001019060200180831161082057829003601f168201915b505050505081565b60606001805461085490612018565b80601f016020809104026020016040519081016040528092919081815260200182805461088090612018565b80156108cb5780601f106108a2576101008083540402835291602001916108cb565b820191905f5260205f20905b8154815290600101906020018083116108ae57829003601f168201915b5050505050905090565b6108e76108e0610b61565b8383610fd7565b5050565b6108fc6108f6610b61565b83610c1e565b61093b576040517f08c379a0000000000000000000000000000000000000000000000000000000008152600401610932906121d4565b60405180910390fd5b6109478484848461113e565b50505050565b606061095882610b16565b5f61096161119a565b90505f81511161097f5760405180602001604052805f8152506109aa565b80610989846111b0565b60405160200161099a929190612322565b6040516020818303038152906040525b915050919050565b5f6109bd600661127a565b90506109c98682611286565b848484846040516020016109e094939291906124b7565b60405160208183030381529060405260075f8381526020019081526020015f209081610a0c91906126de565b50610a1760066112a3565b505050505050565b5f60055f8473ffffffffffffffffffffffffffffffffffffffff1673ffffffffffffffffffffffffffffffffffffffff1681526020019081526020015f205f8373ffffffffffffffffffffffffffffffffffffffff1673ffffffffffffffffffffffffffffffffffffffff1681526020019081526020015f205f9054906101000a900460ff16905092915050565b5f7f01ffc9a7000000000000000000000000000000000000000000000000000000007bffffffffffffffffffffffffffffffffffffffffffffffffffffffff1916827bffffffffffffffffffffffffffffffffffffffffffffffffffffffff1916149050919050565b610b1f816112b7565b610b5e576040517f08c379a0000000000000000000000000000000000000000000000000000000008152600401610b559061223c565b60405180910390fd5b50565b5f33905090565b8160045f8381526020019081526020015f205f6101000a81548173ffffffffffffffffffffffffffffffffffffffff021916908373ffffffffffffffffffffffffffffffffffffffff160217905550808273ffffffffffffffffffffffffffffffffffffffff16610bd883610672565b73ffffffffffffffffffffffffffffffffffffffff167f8c5be1e5ebec7d5bd14f71427d1e84f3dd0314c0f7b2291e5b200ac8c7c3b92560405160405180910390a45050565b5f80610c2983610672565b90508073ffffffffffffffffffffffffffffffffffffffff168473ffffffffffffffffffffffffffffffffffffffff161480610c6b5750610c6a8185610a1f565b5b80610ca957508373ffffffffffffffffffffffffffffffffffffffff16610c918461049b565b73ffffffffffffffffffffffffffffffffffffffff16145b91505092915050565b8273ffffffffffffffffffffffffffffffffffffffff16610cd282610672565b73ffffffffffffffffffffffffffffffffffffffff1614610d28576040517f08c379a0000000000000000000000000000000000000000000000000000000008152600401610d1f9061281d565b60405180910390fd5b5f73ffffffffffffffffffffffffffffffffffffffff168273ffffffffffffffffffffffffffffffffffffffff1603610d96576040517f08c379a0000000000000000000000000000000000000000000000000000000008152600401610d8d906128ab565b60405180910390fd5b610da383838360016112f7565b8273ffffffffffffffffffffffffffffffffffffffff16610dc382610672565b73ffffffffffffffffffffffffffffffffffffffff1614610e19576040517f08c379a0000000000000000000000000000000000000000000000000000000008152600401610e109061281d565b60405180910390fd5b60045f8281526020019081526020015f205f6101000a81549073ffffffffffffffffffffffffffffffffffffffff0219169055600160035f8573ffffffffffffffffffffffffffffffffffffffff1673ffffffffffffffffffffffffffffffffffffffff1681526020019081526020015f205f8282540392505081905550600160035f8473ffffffffffffffffffffffffffffffffffffffff1673ffffffffffffffffffffffffffffffffffffffff1681526020019081526020015f205f82825401925050819055508160025f8381526020019081526020015f205f6101000a81548173ffffffffffffffffffffffffffffffffffffffff021916908373ffffffffffffffffffffffffffffffffffffffff160217905550808273ffffffffffffffffffffffffffffffffffffffff168473ffffffffffffffffffffffffffffffffffffffff167fddf252ad1be2c89b69c2b068fc378daa952ba7f163c4a11628f55a4df523b3ef60405160405180910390a4610f998383836001611377565b505050565b5f60025f8381526020019081526020015f205f9054906101000a900473ffffffffffffffffffffffffffffffffffffffff169050919050565b8173ffffffffffffffffffffffffffffffffffffffff168373ffffffffffffffffffffffffffffffffffffffff1603611045576040517f08c379a000000000000000000000000000000000000000000000000000000000815260040161103c90612913565b60405180910390fd5b8060055f8573ffffffffffffffffffffffffffffffffffffffff1673ffffffffffffffffffffffffffffffffffffffff1681526020019081526020015f205f8473ffffffffffffffffffffffffffffffffffffffff1673ffffffffffffffffffffffffffffffffffffffff1681526020019081526020015f205f6101000a81548160ff0219169083151502179055508173ffffffffffffffffffffffffffffffffffffffff168373ffffffffffffffffffffffffffffffffffffffff167f17307eab39ab6107e8899845ad3d59bd9653f200f220920489ca2b5937696c31836040516111319190611990565b60405180910390a3505050565b611149848484610cb2565b6111558484848461137d565b611194576040517f08c379a000000000000000000000000000000000000000000000000000000000815260040161118b906129a1565b60405180910390fd5b50505050565b606060405180602001604052805f815250905090565b60605f60016111be846114ff565b0190505f8167ffffffffffffffff8111156111dc576111db611c84565b5b6040519080825280601f01601f19166020018201604052801561120e5781602001600182028036833780820191505090505b5090505f82602001820190505b60011561126f578080600190039150507f3031323334353637383961626364656600000000000000000000000000000000600a86061a8153600a8581611264576112636129bf565b5b0494505f850361121b575b819350505050919050565b5f815f01549050919050565b61129f828260405180602001604052805f815250611650565b5050565b6001815f015f828254019250508190555050565b5f8073ffffffffffffffffffffffffffffffffffffffff166112d883610f9e565b73ffffffffffffffffffffffffffffffffffffffff1614159050919050565b5f73ffffffffffffffffffffffffffffffffffffffff168473ffffffffffffffffffffffffffffffffffffffff1614611365576040517f08c379a000000000000000000000000000000000000000000000000000000000815260040161135c90612a36565b60405180910390fd5b611371848484846116aa565b50505050565b50505050565b5f61139d8473ffffffffffffffffffffffffffffffffffffffff166116b0565b156114f2578373ffffffffffffffffffffffffffffffffffffffff1663150b7a026113c6610b61565b8786866040518563ffffffff1660e01b81526004016113e89493929190612aa6565b6020604051808303815f875af192505050801561142357506040513d601f19601f820116820180604052508101906114209190612b04565b60015b6114a2573d805f8114611451576040519150601f19603f3d011682016040523d82523d5f602084013e611456565b606091505b505f81510361149a576040517f08c379a0000000000000000000000000000000000000000000000000000000008152600401611491906129a1565b60405180910390fd5b805181602001fd5b63150b7a0260e01b7bffffffffffffffffffffffffffffffffffffffffffffffffffffffff1916817bffffffffffffffffffffffffffffffffffffffffffffffffffffffff1916149150506114f7565b600190505b949350505050565b5f805f90507a184f03e93ff9f4daa797ed6e38ed64bf6a1f010000000000000000831061155b577a184f03e93ff9f4daa797ed6e38ed64bf6a1f0100000000000000008381611551576115506129bf565b5b0492506040810190505b6d04ee2d6d415b85acef81000000008310611598576d04ee2d6d415b85acef8100000000838161158e5761158d6129bf565b5b0492506020810190505b662386f26fc1000083106115c757662386f26fc1000083816115bd576115bc6129bf565b5b0492506010810190505b6305f5e10083106115f0576305f5e10083816115e6576115e56129bf565b5b0492506008810190505b612710831061161557612710838161160b5761160a6129bf565b5b0492506004810190505b60648310611638576064838161162e5761162d6129bf565b5b0492506002810190505b600a8310611647576001810190505b80915050919050565b61165a83836116d2565b6116665f84848461137d565b6116a5576040517f08c379a000000000000000000000000000000000000000000000000000000000815260040161169c906129a1565b60405180910390fd5b505050565b50505050565b5f808273ffffffffffffffffffffffffffffffffffffffff163b119050919050565b5f73ffffffffffffffffffffffffffffffffffffffff168273ffffffffffffffffffffffffffffffffffffffff1603611740576040517f08c379a000000000000000000000000000000000000000000000000000000000815260040161173790612b79565b60405180910390fd5b611749816112b7565b15611789576040517f08c379a000000000000000000000000000000000000000000000000000000000815260040161178090612be1565b60405180910390fd5b6117965f838360016112f7565b61179f816112b7565b156117df576040517f08c379a00000000000000000000000000000000000000000000000000000000081526004016117d690612be1565b60405180910390fd5b600160035f8473ffffffffffffffffffffffffffffffffffffffff1673ffffffffffffffffffffffffffffffffffffffff1681526020019081526020015f205f82825401925050819055508160025f8381526020019081526020015f205f6101000a81548173ffffffffffffffffffffffffffffffffffffffff021916908373ffffffffffffffffffffffffffffffffffffffff160217905550808273ffffffffffffffffffffffffffffffffffffffff165f73ffffffffffffffffffffffffffffffffffffffff167fddf252ad1be2c89b69c2b068fc378daa952ba7f163c4a11628f55a4df523b3ef60405160405180910390a46118e15f83836001611377565b5050565b5f604051905090565b5f80fd5b5f80fd5b5f7fffffffff0000000000000000000000000000000000000000000000000000000082169050919050565b61192a816118f6565b8114611934575f80fd5b50565b5f8135905061194581611921565b92915050565b5f602082840312156119605761195f6118ee565b5b5f61196d84828501611937565b91505092915050565b5f8115159050919050565b61198a81611976565b82525050565b5f6020820190506119a35f830184611981565b92915050565b5f81519050919050565b5f82825260208201905092915050565b5f5b838110156119e05780820151818401526020810190506119c5565b5f8484015250505050565b5f601f19601f8301169050919050565b5f611a05826119a9565b611a0f81856119b3565b9350611a1f8185602086016119c3565b611a28816119eb565b840191505092915050565b5f6020820190508181035f830152611a4b81846119fb565b905092915050565b5f819050919050565b611a6581611a53565b8114611a6f575f80fd5b50565b5f81359050611a8081611a5c565b92915050565b5f60208284031215611a9b57611a9a6118ee565b5b5f611aa884828501611a72565b91505092915050565b5f73ffffffffffffffffffffffffffffffffffffffff82169050919050565b5f611ada82611ab1565b9050919050565b611aea81611ad0565b82525050565b5f602082019050611b035f830184611ae1565b92915050565b611b1281611ad0565b8114611b1c575f80fd5b50565b5f81359050611b2d81611b09565b92915050565b5f8060408385031215611b4957611b486118ee565b5b5f611b5685828601611b1f565b9250506020611b6785828601611a72565b9150509250929050565b5f805f60608486031215611b8857611b876118ee565b5b5f611b9586828701611b1f565b9350506020611ba686828701611b1f565b9250506040611bb786828701611a72565b9150509250925092565b5f60208284031215611bd657611bd56118ee565b5b5f611be384828501611b1f565b91505092915050565b611bf581611a53565b82525050565b5f602082019050611c0e5f830184611bec565b92915050565b611c1d81611976565b8114611c27575f80fd5b50565b5f81359050611c3881611c14565b92915050565b5f8060408385031215611c5457611c536118ee565b5b5f611c6185828601611b1f565b9250506020611c7285828601611c2a565b9150509250929050565b5f80fd5b5f80fd5b7f4e487b71000000000000000000000000000000000000000000000000000000005f52604160045260245ffd5b611cba826119eb565b810181811067ffffffffffffffff82111715611cd957611cd8611c84565b5b80604052505050565b5f611ceb6118e5565b9050611cf78282611cb1565b919050565b5f67ffffffffffffffff821115611d1657611d15611c84565b5b611d1f826119eb565b9050602081019050919050565b828183375f83830152505050565b5f611d4c611d4784611cfc565b611ce2565b905082815260208101848484011115611d6857611d67611c80565b5b611d73848285611d2c565b509392505050565b5f82601f830112611d8f57611d8e611c7c565b5b8135611d9f848260208601611d3a565b91505092915050565b5f805f8060808587031215611dc057611dbf6118ee565b5b5f611dcd87828801611b1f565b9450506020611dde87828801611b1f565b9350506040611def87828801611a72565b925050606085013567ffffffffffffffff811115611e1057611e0f6118f2565b5b611e1c87828801611d7b565b91505092959194509250565b5f67ffffffffffffffff821115611e4257611e41611c84565b5b611e4b826119eb565b9050602081019050919050565b5f611e6a611e6584611e28565b611ce2565b905082815260208101848484011115611e8657611e85611c80565b5b611e91848285611d2c565b509392505050565b5f82601f830112611ead57611eac611c7c565b5b8135611ebd848260208601611e58565b91505092915050565b5f805f805f60a08688031215611edf57611ede6118ee565b5b5f611eec88828901611b1f565b955050602086013567ffffffffffffffff811115611f0d57611f0c6118f2565b5b611f1988828901611e99565b945050604086013567ffffffffffffffff811115611f3a57611f396118f2565b5b611f4688828901611e99565b935050606086013567ffffffffffffffff811115611f6757611f666118f2565b5b611f7388828901611e99565b925050608086013567ffffffffffffffff811115611f9457611f936118f2565b5b611fa088828901611e99565b9150509295509295909350565b5f8060408385031215611fc357611fc26118ee565b5b5f611fd085828601611b1f565b9250506020611fe185828601611b1f565b9150509250929050565b7f4e487b71000000000000000000000000000000000000000000000000000000005f52602260045260245ffd5b5f600282049050600182168061202f57607f821691505b60208210810361204257612041611feb565b5b50919050565b7f4552433732313a20617070726f76616c20746f2063757272656e74206f776e655f8201527f7200000000000000000000000000000000000000000000000000000000000000602082015250565b5f6120a26021836119b3565b91506120ad82612048565b604082019050919050565b5f6020820190508181035f8301526120cf81612096565b9050919050565b7f4552433732313a20617070726f76652063616c6c6572206973206e6f7420746f5f8201527f6b656e206f776e6572206f7220617070726f76656420666f7220616c6c000000602082015250565b5f612130603d836119b3565b915061213b826120d6565b604082019050919050565b5f6020820190508181035f83015261215d81612124565b9050919050565b7f4552433732313a2063616c6c6572206973206e6f7420746f6b656e206f776e655f8201527f72206f7220617070726f76656400000000000000000000000000000000000000602082015250565b5f6121be602d836119b3565b91506121c982612164565b604082019050919050565b5f6020820190508181035f8301526121eb816121b2565b9050919050565b7f4552433732313a20696e76616c696420746f6b656e20494400000000000000005f82015250565b5f6122266018836119b3565b9150612231826121f2565b602082019050919050565b5f6020820190508181035f8301526122538161221a565b9050919050565b7f4552433732313a2061646472657373207a65726f206973206e6f7420612076615f8201527f6c6964206f776e65720000000000000000000000000000000000000000000000602082015250565b5f6122b46029836119b3565b91506122bf8261225a565b604082019050919050565b5f6020820190508181035f8301526122e1816122a8565b9050919050565b5f81905092915050565b5f6122fc826119a9565b61230681856122e8565b93506123168185602086016119c3565b80840191505092915050565b5f61232d82856122f2565b915061233982846122f2565b91508190509392505050565b7f466f6f6420547970653a200000000000000000000000000000000000000000005f82015250565b5f612379600b836122e8565b915061238482612345565b600b82019050919050565b7f207c2000000000000000000000000000000000000000000000000000000000005f82015250565b5f6123c36003836122e8565b91506123ce8261238f565b600382019050919050565b7f5765696768743a200000000000000000000000000000000000000000000000005f82015250565b5f61240d6008836122e8565b9150612418826123d9565b600882019050919050565b7f4c6f636174696f6e3a20000000000000000000000000000000000000000000005f82015250565b5f612457600a836122e8565b915061246282612423565b600a82019050919050565b7f54696d657374616d703a200000000000000000000000000000000000000000005f82015250565b5f6124a1600b836122e8565b91506124ac8261246d565b600b82019050919050565b5f6124c18261236d565b91506124cd82876122f2565b91506124d8826123b7565b91506124e382612401565b91506124ef82866122f2565b91506124fa826123b7565b91506125058261244b565b915061251182856122f2565b915061251c826123b7565b915061252782612495565b915061253382846122f2565b915081905095945050505050565b5f819050815f5260205f209050919050565b5f6020601f8301049050919050565b5f82821b905092915050565b5f6008830261259d7fffffffffffffffffffffffffffffffffffffffffffffffffffffffffffffffff82612562565b6125a78683612562565b95508019841693508086168417925050509392505050565b5f819050919050565b5f6125e26125dd6125d884611a53565b6125bf565b611a53565b9050919050565b5f819050919050565b6125fb836125c8565b61260f612607826125e9565b84845461256e565b825550505050565b5f90565b612623612617565b61262e8184846125f2565b505050565b5b81811015612651576126465f8261261b565b600181019050612634565b5050565b601f8211156126965761266781612541565b61267084612553565b8101602085101561267f578190505b61269361268b85612553565b830182612633565b50505b505050565b5f82821c905092915050565b5f6126b65f198460080261269b565b1980831691505092915050565b5f6126ce83836126a7565b9150826002028217905092915050565b6126e7826119a9565b67ffffffffffffffff811115612700576126ff611c84565b5b61270a8254612018565b612715828285612655565b5f60209050601f831160018114612746575f8415612734578287015190505b61273e85826126c3565b8655506127a5565b601f19841661275486612541565b5f5b8281101561277b57848901518255600182019150602085019450602081019050612756565b868310156127985784890151612794601f8916826126a7565b8355505b6001600288020188555050505b505050505050565b7f4552433732313a207472616e736665722066726f6d20696e636f7272656374205f8201527f6f776e6572000000000000000000000000000000000000000000000000000000602082015250565b5f6128076025836119b3565b9150612812826127ad565b604082019050919050565b5f6020820190508181035f830152612834816127fb565b9050919050565b7f4552433732313a207472616e7366657220746f20746865207a65726f206164645f8201527f7265737300000000000000000000000000000000000000000000000000000000602082015250565b5f6128956024836119b3565b91506128a08261283b565b604082019050919050565b5f6020820190508181035f8301526128c281612889565b9050919050565b7f4552433732313a20617070726f766520746f2063616c6c6572000000000000005f82015250565b5f6128fd6019836119b3565b9150612908826128c9565b602082019050919050565b5f6020820190508181035f83015261292a816128f1565b9050919050565b7f4552433732313a207472616e7366657220746f206e6f6e2045524337323152655f8201527f63656976657220696d706c656d656e7465720000000000000000000000000000602082015250565b5f61298b6032836119b3565b915061299682612931565b604082019050919050565b5f6020820190508181035f8301526129b88161297f565b9050919050565b7f4e487b71000000000000000000000000000000000000000000000000000000005f52601260045260245ffd5b7f4e46547320617265206e6f6e2d7472616e7366657261626c65000000000000005f82015250565b5f612a206019836119b3565b9150612a2b826129ec565b602082019050919050565b5f6020820190508181035f830152612a4d81612a14565b9050919050565b5f81519050919050565b5f82825260208201905092915050565b5f612a7882612a54565b612a828185612a5e565b9350612a928185602086016119c3565b612a9b816119eb565b840191505092915050565b5f608082019050612ab95f830187611ae1565b612ac66020830186611ae1565b612ad36040830185611bec565b8181036060830152612ae58184612a6e565b905095945050505050565b5f81519050612afe81611921565b92915050565b5f60208284031215612b1957612b186118ee565b5b5f612b2684828501612af0565b91505092915050565b7f4552433732313a206d696e7420746f20746865207a65726f20616464726573735f82015250565b5f612b636020836119b3565b9150612b6e82612b2f565b602082019050919050565b5f6020820190508181035f830152612b9081612b57565b9050919050565b7f4552433732313a20746f6b656e20616c7265616479206d696e746564000000005f82015250565b5f612bcb601c836119b3565b9150612bd682612b97565b602082019050919050565b5f6020820190508181035f830152612bf881612bbf565b905091905056fea2646970667358221220c8085ec5a73e34bba97c697fde8a65994eb6a564c6a589eeb36fb10e2d76d79664736f6c63430008150033",
  "immutableReferences": {},
  "source": "// SPDX-License-Identifier: MIT\r\npragma solidity ^0.8.0;\r\n\r\nimport \"@openzeppelin/contracts/token/ERC721/ERC721.sol\";\r\nimport \"@openzeppelin/contracts/utils/Counters.sol\";\r\n\r\ncontract FoodLoopNFT is ERC721 {\r\n    using Counters for Counters.Counter;\r\n    Counters.Counter private _tokenIdCounter;\r\n    mapping(uint256 => string) public certificateData;\r\n\r\n    constructor() ERC721(\"FoodLoopCertificate\", \"FLNFT\") {}\r\n\r\n    function mintCertificate(\r\n        address donor,\r\n        string memory foodType,\r\n        string memory weight,\r\n        string memory location,\r\n        string memory timestamp\r\n    ) public {\r\n        uint256 tokenId = _tokenIdCounter.current();\r\n        _safeMint(donor, tokenId);\r\n        certificateData[tokenId] = string(abi.encodePacked(\r\n            \"Food Type: \", foodType, \" | \",\r\n            \"Weight: \", weight, \" | \",\r\n            \"Location: \", location, \" | \",\r\n            \"Timestamp: \", timestamp\r\n        ));\r\n        _tokenIdCounter.increment();\r\n    }\r\n\r\n    function _beforeTokenTransfer(\r\n        address from,\r\n        address to,\r\n        uint256 tokenId,\r\n        uint256 batchSize\r\n    ) internal override {\r\n        require(from == address(0), \"NFTs are non-transferable\");\r\n        super._beforeTokenTransfer(from, to, tokenId, batchSize);\r\n    }\r\n}\r\n",
  "sourcePath": "D:\\SANKALP\\FoodLoop\\backend\\blockchain\\contracts\\FoodLoopNFT.sol",
  "compiler": {
    "name": "solc",
    "version": "0.8.21+commit.d9974bed.Emscripten.clang"
  },
  "schemaVersion": "3.4.16",
  "updatedAt": "2025-04-16T13:24:43.100Z",
  "devdoc": {
    "events": {
      "Approval(address,address,uint256)": {
        "details": "Emitted when `owner` enables `approved` to manage the `tokenId` token."
      },
      "ApprovalForAll(address,address,bool)": {
        "details": "Emitted when `owner` enables or disables (`approved`) `operator` to manage all of its assets."
      },
      "Transfer(address,address,uint256)": {
        "details": "Emitted when `tokenId` token is transferred from `from` to `to`."
      }
    },
    "kind": "dev",
    "methods": {
      "approve(address,uint256)": {
        "details": "See {IERC721-approve}."
      },
      "balanceOf(address)": {
        "details": "See {IERC721-balanceOf}."
      },
      "getApproved(uint256)": {
        "details": "See {IERC721-getApproved}."
      },
      "isApprovedForAll(address,address)": {
        "details": "See {IERC721-isApprovedForAll}."
      },
      "name()": {
        "details": "See {IERC721Metadata-name}."
      },
      "ownerOf(uint256)": {
        "details": "See {IERC721-ownerOf}."
      },
      "safeTransferFrom(address,address,uint256)": {
        "details": "See {IERC721-safeTransferFrom}."
      },
      "safeTransferFrom(address,address,uint256,bytes)": {
        "details": "See {IERC721-safeTransferFrom}."
      },
      "setApprovalForAll(address,bool)": {
        "details": "See {IERC721-setApprovalForAll}."
      },
      "supportsInterface(bytes4)": {
        "details": "See {IERC165-supportsInterface}."
      },
      "symbol()": {
        "details": "See {IERC721Metadata-symbol}."
      },
      "tokenURI(uint256)": {
        "details": "See {IERC721Metadata-tokenURI}."
      },
      "transferFrom(address,address,uint256)": {
        "details": "See {IERC721-transferFrom}."
      }
    },
    "version": 1
  },
  "userdoc": {
    "kind": "user",
    "methods": {},
    "version": 1
  }
}